{
   "safe": "0x61c54cc934912828795acdF92b3770A6aad083E7",
   "tx": {
      "safe": "0x61c54cc934912828795acdF92b3770A6aad083E7",
      "to": "0x40A2aCCbd92BCA938b02010E17A5b8929b49130D",
      "value": "0",
      "data": "0x8d80ff0a000000000000000000000000000000000000000000000000000000000000002000000000000000000000000000000000000000000000000000000000000002f20000000000062c52e29e8029dc2413172f6d619d8500000000000000000000000000000000000000000000000000000000000000000000000000000000000000000000000000000000000000000000000000000224f1ab873c00000000000000000000000072d453a685c27580acdfcf495830eb16b7e165f800000000000000000000000000000000000000000000000000000000000000600000000000000000000000000000000000000000000000000000017da9f2c3f30000000000000000000000000000000000000000000000000000000000000184a4f9edbf0000000000000000000000000000000000000000000000000000000000000020000000000000000000000000000000000000000000000000000000000000014000000000000000000000000061c54cc934912828795acdf92b3770a6aad083e700000000000000000000000061c54cc934912828795acdf92b3770a6aad083e700000000000000000000000061c54cc934912828795acdf92b3770a6aad083e7000000000000000000000000df33060f476f8cff7511f806c72719394da1ad64000000000000000000000000000000000000000000000000000000000001518000000000000000000000000000000000000000000000000000000000000151800000000000000000000000000000000000000000000000000000000000093a800000000000000000000000000000000000000000000000056bc75e2d6310000000000000000000000000000000000000000000000000000000000000000000a2000000000000000000000000df33060f476f8cff7511f806c72719394da1ad64000000000000000000000000000000000000000000000000000000000061c54cc934912828795acdf92b3770a6aad083e700000000000000000000000000000000000000000000000000000000000000000000000000000000000000000000000000000000000000000000000000000024610b59250000000000000000000000003d70566f04ff7e98971696a248de5be55e33ece00000000000000000000000000000",
      "operation": 1,
      "gasToken": "0x0000000000000000000000000000000000000000",
      "safeTxGas": 0,
      "baseGas": 0,
      "gasPrice": "0",
      "refundReceiver": "0x0000000000000000000000000000000000000000",
      "nonce": 1,
      "executionDate": null,
      "submissionDate": "2021-12-11T14:43:48.925988Z",
      "modified": "2021-12-11T14:43:49.044810Z",
      "blockNumber": null,
      "transactionHash": null,
      "safeTxHash": "0xd01b1b8f5151fb02230ef87399363560c6d25bf9d4e19e7fd408eb92daaf7e32",
      "executor": null,
      "isExecuted": false,
      "isSuccessful": null,
      "ethGasPrice": null,
      "gasUsed": null,
      "fee": null,
      "origin": "{\"url\":\"https://gnosis-zodiac-app.netlify.app/\",\"name\":\"Zodiac\"}",
      "dataDecoded": {
         "method": "multiSend",
         "parameters": [
            {
               "name": "transactions",
               "type": "bytes",
               "value": "0x0000000000062c52e29e8029dc2413172f6d619d8500000000000000000000000000000000000000000000000000000000000000000000000000000000000000000000000000000000000000000000000000000224f1ab873c00000000000000000000000072d453a685c27580acdfcf495830eb16b7e165f800000000000000000000000000000000000000000000000000000000000000600000000000000000000000000000000000000000000000000000017da9f2c3f30000000000000000000000000000000000000000000000000000000000000184a4f9edbf0000000000000000000000000000000000000000000000000000000000000020000000000000000000000000000000000000000000000000000000000000014000000000000000000000000061c54cc934912828795acdf92b3770a6aad083e700000000000000000000000061c54cc934912828795acdf92b3770a6aad083e700000000000000000000000061c54cc934912828795acdf92b3770a6aad083e7000000000000000000000000df33060f476f8cff7511f806c72719394da1ad64000000000000000000000000000000000000000000000000000000000001518000000000000000000000000000000000000000000000000000000000000151800000000000000000000000000000000000000000000000000000000000093a800000000000000000000000000000000000000000000000056bc75e2d6310000000000000000000000000000000000000000000000000000000000000000000a2000000000000000000000000df33060f476f8cff7511f806c72719394da1ad64000000000000000000000000000000000000000000000000000000000061c54cc934912828795acdf92b3770a6aad083e700000000000000000000000000000000000000000000000000000000000000000000000000000000000000000000000000000000000000000000000000000024610b59250000000000000000000000003d70566f04ff7e98971696a248de5be55e33ece0",
               "valueDecoded": [
                  {
                     "operation": 0,
                     "to": "0x00000000062c52e29e8029Dc2413172f6D619d85",
                     "value": "0",
                     "data": "0xf1ab873c00000000000000000000000072d453a685c27580acdfcf495830eb16b7e165f800000000000000000000000000000000000000000000000000000000000000600000000000000000000000000000000000000000000000000000017da9f2c3f30000000000000000000000000000000000000000000000000000000000000184a4f9edbf0000000000000000000000000000000000000000000000000000000000000020000000000000000000000000000000000000000000000000000000000000014000000000000000000000000061c54cc934912828795acdf92b3770a6aad083e700000000000000000000000061c54cc934912828795acdf92b3770a6aad083e700000000000000000000000061c54cc934912828795acdf92b3770a6aad083e7000000000000000000000000df33060f476f8cff7511f806c72719394da1ad64000000000000000000000000000000000000000000000000000000000001518000000000000000000000000000000000000000000000000000000000000151800000000000000000000000000000000000000000000000000000000000093a800000000000000000000000000000000000000000000000056bc75e2d6310000000000000000000000000000000000000000000000000000000000000000000a2000000000000000000000000df33060f476f8cff7511f806c72719394da1ad6400000000000000000000000000000000000000000000000000000000",
                     "dataDecoded": {
                        "method": "deployModule",
                        "parameters": [
                           {
                              "name": "masterCopy",
                              "type": "address",
                              "value": "0x72d453a685c27580acDFcF495830EB16B7E165f8"
                           },
                           {
                              "name": "initializer",
                              "type": "bytes",
                              "value": "0xa4f9edbf0000000000000000000000000000000000000000000000000000000000000020000000000000000000000000000000000000000000000000000000000000014000000000000000000000000061c54cc934912828795acdf92b3770a6aad083e700000000000000000000000061c54cc934912828795acdf92b3770a6aad083e700000000000000000000000061c54cc934912828795acdf92b3770a6aad083e7000000000000000000000000df33060f476f8cff7511f806c72719394da1ad64000000000000000000000000000000000000000000000000000000000001518000000000000000000000000000000000000000000000000000000000000151800000000000000000000000000000000000000000000000000000000000093a800000000000000000000000000000000000000000000000056bc75e2d6310000000000000000000000000000000000000000000000000000000000000000000a2000000000000000000000000df33060f476f8cff7511f806c72719394da1ad64"
                           },
                           {
                              "name": "saltNonce",
                              "type": "uint256",
                              "value": "1639233799155"
                           }
                        ]
                     }
                  },
                  {
                     "operation": 0,
                     "to": "0x61c54cc934912828795acdF92b3770A6aad083E7",
                     "value": "0",
                     "data": "0x610b59250000000000000000000000003d70566f04ff7e98971696a248de5be55e33ece0",
                     "dataDecoded": {
                        "method": "enableModule",
                        "parameters": [
                           {
                              "name": "module",
                              "type": "address",
                              "value": "0x3d70566f04FF7e98971696A248De5bE55e33ecE0"
                           }
                        ]
                     }
                  }
               ]
            }
         ]
      },
      "confirmationsRequired": null,
      "confirmations": [
         {
            "owner": "0x05c85Ab5B09Eb8A55020d72daf6091E04e264af9",
            "submissionDate": "2021-12-11T14:43:49.044810Z",
            "transactionHash": null,
            "signature": "0xc8e01cddefb24abfed7780252cfdeaf192a4c4bfad5e7d472115be3d80e86c6261aa9fba985bb8b5f174102123d75275c27b3c1eee7f6c148922e5a08413389a1c",
            "signatureType": "EOA"
         }
      ],
      "signatures": null
   }
}